:020000040800F2
:10000000680900203502000847240008D5220008AE
:100010004524000887060008A12E00080000000003
:10002000000000000000000000000000F5250008AE
:10003000890600080000000049240008F725000890
:100040004F0200084F0200084F0200084F0200084C
:100050004F0200084F0200084F0200084F0200083C
:100060004F0200084F0200084F0200084F0200082C
:100070004F0200084F0200084F0200084F0200081C
:100080004F0200084F0200084F0200084F0200080C
:100090004F0200084F0200084F0200084F020008FC
:1000A0004F0200084F0200084F0200086D260008AA
:1000B0004F02000800000000000000004F0200088E
:1000C0004F02000800000000000000004F0200087E
:1000D000000000004F020008952E000800000000FC
:1000E0004F0200084F02000800000000000000005E
:1000F0000000000000000000000000000000000000
:100100000000000000000000000000004F02000896
:1001100000000000000000004F0200084F0200082D
:100120004F0200084F0200084F0200084F0200086B
:100130004F02000800000000000000000000000066
:100140004F0200084F0200084F0200084F0200084B
:100150004F0200084F0200084F0200084F0200083B
:100160004F0200084F0200084F0200080000000084
:100170004F0200084F0200080000000000000000CD
:100180004F0200084F0200084F02000800F002F87A
:1001900000F041F80AA090E8000C82448344AAF1E0
:1001A0000107DA4501D100F036F8AFF2090EBAE8DE
:1001B0000F0013F0010F18BFFB1A43F0010318479B
:1001C000F032000010330000103A24BF78C878C124
:1001D000FAD8520724BF30C830C144BF04680C604D
:1001E000704700000023002400250026103A28BF95
:1001F00078C1FBD8520728BF30C148BF0B60704799
:10020000642900F0F780002070471FB503F090F8D4
:100210001FBD10B510BD00F0FCF91146FFF7F5FF4A
:1002200002F050FE00F01AFA03B4FFF7F2FF03BC2D
:1002300000F022FA0948804709480047FEE7FEE738
:10024000FEE7FEE7FEE7FEE7FEE7FEE7FEE7FEE786
:1002500004480549054A064B704700005D26000822
:100260008D0100086803002068090020680500204F
:100270006805002053EA020C00F069802DE9F04B7C
:100280004FF00006002B1FBFB3FA83F503FA05F405
:1002900024FA05F65E4012BF1643B2FA82F502FA5E
:1002A00005F4C5F120051EBF22FA05FC44EA0C0442
:1002B000203556EA044C4FEA144418BF641C4FF032
:1002C00000084FF00009904271EB030C39D300296C
:1002D00019BFB1FA81F701FA07F6B0FA80F700FA10
:1002E00007F6C7F120071EBF20FA07FC46EA0C06F6
:1002F0002037B6FBF4FCA7EB0507103F07F01F0BF8
:10030000CBF120060CFA0BFB2CFA06F644BFB346E1
:100310000026202FA4BF5E464FF0000B5BEA060CC0
:1003200008BF4FF0010B19EB0B09ABFB027C48EB4C
:100330000608C01B06FB02CC0BFB03CC71EB0C01C7
:10034000C1E70B46024641464846BDE8F08B13B56F
:100350004FF000004FF00001AFF30080BDE81C40FB
:10036000704700000FB41CB5074B06AA7B446946D2
:100370000090059800F035F90020694600F044F936
:100380001CBC5DF814FB0000990200002DE9F0414F
:100390000E460446002020622046E168884730B3BC
:1003A000252805D0D4E901219047206A401CF2E7B6
:1003B000E168204600278847050018D0A5F14100D4
:1003C000192802D820354FF40067324629462046C6
:1003D0002760FFF715FF40B1012804D0F61D26F075
:1003E00007060836D8E7361DD6E72846DAE7206A3A
:1003F000BDE8F0812DE9F04106460024106875291A
:10040000314616A510D0AFF30080002802DA404232
:1004100013A507E031688A0701D512A502E0490754
:1004200004D511A5012401E0AFF3008000210A22C8
:1004300006F1240709E0B0FBF2FCB0FBF2F302FB8B
:100440001C00303078541846491C0028F3D123464C
:100450002A463046BDE8F04100F064B800000000D4
:100460002D0000002B0000002000000010B5203AF5
:10047000C0F00B80B1E81850203AA0E81850B1E85D
:100480001850A0E81850BFF4F5AF5FEA027C24BF13
:10049000B1E81850A0E8185044BF18C918C0BDE80A
:1004A00010405FEA827C24BF51F8043B40F8043BD3
:1004B00008BF7047D20728BF31F8023B48BF11F888
:1004C000012B28BF20F8023B48BF00F8012B7047E2
:1004D0004FF0000200B5134694469646203922BFDD
:1004E000A0E80C50A0E80C50B1F12001BFF4F7AF28
:1004F000090728BFA0E80C5048BF0CC05DF804EB0A
:10050000890028BF40F8042B08BF704748BF20F877
:10051000022B11F0804F18BF00F8012B7047704775
:10052000704770472DE9F0470D46994692460446BC
:1005300000F124080168880604D5E06921F0100163
:10054000216000E00120A84201DD471B00E00027F8
:10055000A1697A1902EB0900081AA0612078C00687
:1005600002D42046AFF30080002608E0D4E9012140
:100570001AF806009047206A401C761C20624E45FF
:10058000F4DB2078C0060AD52046AFF3008006E0F1
:10059000D4E9012130209047206A401C2062381E97
:1005A000A7F10107F4DC07E0D4E9012118F8050000
:1005B0009047206A401C2062281EA5F10105F3DC4B
:1005C0002046AFF300802078000602D50220BDE867
:1005D000F0870120FBE7000001694A1C02610878EE
:1005E000704700B58FB0CDE9013100210591054973
:1005F0007944CDE9031011466846FFF7C7FE0FB0F6
:1006000000BD0000E5FFFFFF0A6802F8010B0A6069
:100610007047754600F02CF8AE4605006946534613
:1006200020F00700854618B020B5FFF711FEBDE8A1
:1006300020404FF000064FF000074FF000084FF049
:10064000000B21F00701AC46ACE8C009ACE8C009DA
:10065000ACE8C009ACE8C0098D46704710B5044647
:10066000AFF300802046BDE81040FFF7DDBD00007D
:10067000004870470803002001491820ABBEFEE780
:10068000260002007047FEE7704772B6FEE710B51D
:1006900090F825100022022905D00421C16380F8BA
:1006A0002420012010BD01680B6823F00E030B60AD
:1006B00001680B6823F001030B6090F84410046C90
:1006C00001F01C03012101FA03F3636080F8251097
:1006D00080F82420104610BD10B590F82510002495
:1006E000022903D00421C16301241AE001680A68C9
:1006F00022F00E020A6001680A6822F001020A6014
:1007000090F84410036C01F01C02012101FA02F27E
:100710005A6080F82510002180F82410816B01B107
:100720008847204610BD000070B5044600F01AF955
:100730000546601C02D004480078044400F012F919
:10074000401BA042FAD370BD180000202DE9F04FE5
:10075000DFF8E091002301270326A9F1040B85B0FF
:100760000F2509F1040AABF1040EDBE007FA03FCE4
:1007700012EA0C027ED00C7904F00304012C01D0A3
:10078000022C20D1846800945C0006FA04F80494DA
:10079000009C24EA08040094D1F80C80049C08FA18
:1007A00004F8009C48EA0408C0F80880446824EA79
:1007B0000C0491F804C0CCF3001C0CFA03FC4CEAC6
:1007C000040CC0F804C00C79E443A4070DD0D0F8A1
:1007D0000CC04FEA430806FA08F42CEA040C8C68B3
:1007E00004FA08F444EA0C04C4600C7904F003042D
:1007F000022C19D1DC0800EB84040294246A4FEA2D
:10080000437C4FEADC6CCDF810C005FA0CFC24EAFE
:100810000C04D1F81080DDF810C008FA0CF848EA92
:100820000408029CC4F8208004684FEA430806FAD2
:1008300008FC24EA0C0491F804C00CF0030C0CFA38
:1008400008FC4CEA040CC0F800C04C6814F4403FAB
:1008500067D0394CD4F860C04CF0010CC4F860C0CB
:10086000246E23F0030C04F001040094334C644420
:10087000029400E055E0A4684FEA837C4FEA1C78BC
:1008800005FA08FC24EA0C04B0F1904F06D0DFF81A
:10089000B0C0604505D14FF0010C0BE04FF0000CEB
:1008A00008E0DFF8A0C0604502D14FF0020C01E083
:1008B0004FF0070C0CFA08FC4CEA040C029CC4F83C
:1008C00008C0D9F80040CC46D1F8048094435FEAD0
:1008D000C82800D51443CCF80040DAF80040D446CC
:1008E000D1F8048094435FEA882800D51443CCF8FB
:1008F0000040DBF80040DC46D1F8048094435FEA16
:10090000883800D51443CCF80040DEF80040F446A7
:10091000D1F8048094435FEAC83800D51443CCF87A
:1009200000405B1C0C682246DC407FF41FAF05B022
:1009300000F00AB808040140001002400000014025
:10094000000400480008004830BCBDE8C08F0069C2
:10095000084000D0012070470AB181617047816270
:1009600070470000014880687047000018000020B0
:1009700002488168027811448160704718000020A5
:1009800010B50024032000F071F80F2000F008F8E3
:1009900008B1012401E000F025F8204610BD000058
:1009A00070B50E4E05460024307898B14FF47A7138
:1009B000B1FBF0F00A490968B1FBF0F000F0B2FDBC
:1009C00040B9102D06D200222946501E00F02EF804
:1009D000756000E00124204670BD00001800002072
:1009E00024000020094808B5016E41F001010166AC
:1009F000016E01F001010091816D41F0805181652E
:100A0000806D00F08050009008BD00000010024092
:100A1000002809DB00F01F020121914040098000FD
:100A200000F1E020C0F8001170470000F0B40E4B58
:100A30001B680C46C3F30223C3F10705042D00D93C
:100A40000425191D072901D2002300E0DB1E012621
:100A500006FA05F1491E214099409E40761E164037
:100A60003143F0BC02F01DBA0CED00E0064900F085
:100A7000070208684FF6FF03184040EA0220034AC5
:100A800010430860704700000CED00E00000FA051C
:100A90001649B0F5007F0868C0F3412009D002284C
:100AA00005D0086820F4C06040F480600860002031
:100AB00070470128FBD0086820F4C06040F4007043
:100AC00008600B483222006850430A4AB0FBF2F03B
:100AD000401C00E0401E4A69520501D50028F9D1AA
:100AE00048694005E3D503207047000000700040CE
:100AF0002400002040420F000248006800F4C0605B
:100B000070470000007000402DE9F84F04460027B0
:100B100000889C4D3E46000515D5E06B60B1B0F5F0
:100B2000000F04D0B0F5400F2BD001270AE0E86891
:100B300040F48030E86024E00021201D01F086FCB4
:100B400007001ED03E462068800338D5A86D4FF0C0
:100B50000008C00009D4A86D40F08050A865A86DB9
:100B60004FF0010800F080500090DFF81CA2DAF886
:100B7000001041F48071CAF80010FFF7F3FE8146BF
:100B800010E0D5F88800E16B20F440000843C5F878
:100B90008800D8E7FFF7E6FEA0EB0900022801D99C
:100BA000032704E0DAF80000C005F3D5EFB33E46B2
:100BB000B8F1000F03D0A86D20F08050A865207810
:100BC000C00707D0D5F88800216A20F00300084349
:100BD000C5F888002078800707D5D5F88800616AB5
:100BE00020F00C000843C5F888002078800607D55F
:100BF000D5F88800A16A20F440600843C5F8880051
:100C00002088800507D5D5F88800616B20F4402046
:100C10000843C5F888002088400509D5D5F8880024
:100C2000A16B20F44010084300E02EE0C5F88800D6
:100C30002078400607D5D5F88800E16A20F44050B6
:100C40000843C5F888002088C00507D5D5F8880076
:100C5000216B20F440300843C5F8880020884FF00D
:100C6000006780044FF080684ED5D5F88800216C6D
:100C700020F040600843C5F88800206CB8423BD1A2
:100C8000E86840F48010E8603EE0D5F8900010F489
:100C9000407014D0216D814211D0D5F89000D5F864
:100CA000901020F4407041F48031C5F89010D5F8D0
:100CB000901021F48031C5F89010C5F89000C0075D
:100CC00011D0FFF74FFE074641F2883907E000BF19
:100CD000FFF748FEC11B494501D9032668E7D5F84F
:100CE00090008007F4D5D5F89000216D20F4407075
:100CF0000843C5F890005BE7404505D10121201D60
:100D000001F0A4FB00B106462068400317D5D5F8D2
:100D10008800616C20F040600843C5F88800606C72
:100D2000B84204D1E86840F48010E86007E040452C
:100D300005D10121201D01F089FB00B10646208864
:100D4000400411D5D5F88800A16C20F0405008432C
:100D5000C5F88800A06CB0F1805F05D10221201D8C
:100D600001F074FB00B106462088000406D555F852
:100D7000880FE16C20F0804008432860304600F086
:100D800005B80000001002400070004018BCBDE82B
:100D9000E08F00002DE9F0470F4605006BD0494E6B
:100DA000306800F00700B84209D2306820F0070030
:100DB00038433060306800F00700B8425BD12878D3
:100DC000414C80070AD5A868A16801F0F00188426B
:100DD00004D9A16821F0F0010143A1602878C0077F
:100DE0002CD06868032811D0022812D0216898B14D
:100DF000490500293FDAA16821F003010143A16000
:100E0000FFF7B0FD804641F2883910E02168890182
:100E1000EFE721688903ECE78907EAE7FFF7A2FD1E
:100E2000A0EB0801494502D90320BDE8F087A0687E
:100E3000696800F00C00B0EB810FEFD128788007D3
:100E40000AD5A868A16801F0F001884204D2A1681F
:100E500021F0F0010143A160306800F00700B842C2
:100E60000BD9306820F0070038433060306800F05C
:100E70000700B84201D00120D7E72878400705D500
:100E8000A068E96820F4E0600843A06028780007C3
:100E900006D5A068296920F4605040EAC100A0602E
:100EA00000F03EF8A168094AC1F30311515C01F05A
:100EB0001F01C8400649086006480068BDE8F047C1
:100EC000FFF76EBD0020024000100240043400080D
:100ED000240000201C00002005480649006889689D
:100EE000054AC1F30221515C01F01F01C84070475F
:100EF0002400002000100240443400080548064940
:100F000000688968054AC1F3C221515C01F01F01E4
:100F1000C8407047240000200010024044340008FC
:100F200070B52549002318468A68CC6812F00C0277
:100F300004F00306214C4FEA640509D00C2A05D0C1
:100F4000042A32D0082A00D1284670BD012E10D1C3
:100F50000B681B0704D4D1F89430C3F3032302E0D9
:100F60000B68C3F30313164E56F82330DAB10C2A7C
:100F7000EBD1C86800F00300022818D0032818D06D
:100F80001846CA68CB68C2F30212C3F30623434370
:100F9000521CB3FBF2F2C868C0F34160401C400031
:100FA000B2FBF0F070BD184670BD204670BD204603
:100FB000E7E72846E5E70000001002400024F400BF
:100FC000143400082DE9F84304006FD0FA4DA868E6
:100FD00000F00C06E86800F003072078C00664D52E
:100FE00076B10C2E01D1012F0AD0A0690028286803
:100FF0007AD040F001002860FFF7B4FC80465DE045
:101000002868800702D5A0690028DED0216A2868F8
:10101000000703D5286800F0F00004E0D5F894003C
:10102000F02202EA1010814216D9084601F0A4FA13
:1010300000283BD1286840F0080028602868216A11
:1010400020F0F000084328606868E16920F47F40E0
:1010500040EA0120686016E0286840F00800286037
:101060002868216A20F0F000084328606868E16978
:1010700020F47F4040EA0120686026B9206A01F030
:101080007BFA0028D5D1FFF74BFFA968CB4AC1F303
:101090000311515C01F01F01C840C9490860C948EB
:1010A0000068FFF77DFC00287ED12EE0CAE000BF7B
:1010B000FFF758FCA0EB0800022876D828688007C4
:1010C000F6D5286840F0080028602868216A20F0DA
:1010D000F000084328606868E16920F47F4040EA36
:1010E0000120686011E0FFE720F001002860FFF7B1
:1010F00039FC804606E000BFFFF734FCA0EB080097
:101100000228DAD828688007F6D42078C00740D0B3
:10111000082E18D00C2E01D1032F14D06068B0F522
:10112000803F17D0B0F5A02F286817D020F480306A
:101130002860286820F4802028606068E0B1FFF70C
:1011400011FC804614E02868800322D560680028DE
:1011500078D01EE0286840F48030EDE740F480202D
:101160002860F7E7FFF7FEFBA0EB08006428A4D88F
:1011700028688003F6D50CE0FFF7F4FB804605E015
:10118000FFF7F0FBA0EB0800642896D828688003DE
:10119000F6D4207880073BD5042E11D00C2E01D137
:1011A000022F0DD0E06801E0AAE1FFE000282868E6
:1011B0001ED040F480702860FFF7D4FB07460CE097
:1011C000286840050CD5E0680028C1D008E000BFC1
:1011D000FFF7C8FBC01B022893D828684005F7D545
:1011E0006868217C20F0F85040EA016068600FE0F8
:1011F00020F480702860FFF7B5FB074605E000BFCC
:10120000FFF7B0FBC01B0228B1D828684005F7D40F
:101210002078000729D560690028D5F8940012D0FD
:1012200040F00100C5F89400FFF79CFB074604E07E
:10123000FFF798FBC01B022899D8D5F894008007C7
:10124000F6D512E02BE120F00100C5F89400FFF77D
:1012500089FB074605E000BFFFF784FBC01B02289F
:1012600085D8D5F894008007F6D42078400766D555
:10127000A86D0027C00008D4A86D40F08050A86574
:10128000A86D012700F0805000904F480168C90503
:1012900012D40168814641F480710160FFF762FB5E
:1012A000804605E0FFF75EFBA0EB080002287DD832
:1012B000D9F80000C005F5D5A068012816D005288A
:1012C000D5F8900017D020F00100C5F89000D5F8AF
:1012D000900020F0040000BFC5F89000A06841F223
:1012E0008839C0B1FFF73EFB80460FE0D5F890008B
:1012F00040F00100F0E740F00400C5F89000F5E789
:10130000FFF730FBA0EB080149454FD8D5F8900016
:101310008007F5D50EE0FFF725FB804606E000BF0D
:10132000FFF720FBA0EB080149453FD8D5F8900016
:101330008007F5D41FB1A86D20F08050A8652078F3
:10134000800628D5606A0028D5F8980012D040F0B1
:101350000100C5F89800FFF705FB074605E000BF50
:10136000FFF700FBC01B022820D8D5F898008007A3
:10137000F6D510E020F00100C5F89800FFF7F2FA6A
:10138000074604E0FFF7EEFAC01B02280ED8D5F896
:1013900098008007F6D4A06AF0B3022816D00C2E6D
:1013A0007DD0286820F08070286000E0A7E0FFF77B
:1013B000D9FA0446A6E000000010024004340008F8
:1013C000240000201C00002000700040E868E26A51
:1013D00000F00301914228D1216B00F07002090155
:1013E0001039914221D1626B00F4FE41B1EB022F22
:1013F0001BD194F8382000F07841B1EBC26F14D1C2
:10140000A18F00F4C00249084905A1F500119142DD
:101410000BD194F8401000E06AE04908490600F05A
:10142000C060A1F1007181424BD00C2E73D02868AE
:10143000400170D4286820F080702860FFF792FA8D
:10144000064604E0FFF78EFA801B022857D828686A
:101450008001F7D4F4E90B016FF00F0202EB0111E8
:101460000843218A5204490802EB4151A26841EA2B
:1014700002210843217D4FF07E42490802EB416181
:101480000843217B40EAC160E968244A11400843CF
:10149000E860286840F080702860E86800E03AE082
:1014A00040F08070E860FFF75DFA044605E000BF99
:1014B000FFF758FA001B022821D828688001F7D5C9
:1014C00027E02868800124D4286840F080702860D4
:1014D000E86840F08070E860FFF744FA044604E0F2
:1014E000FFF740FA001B022809D828688001F7D5C9
:1014F0000FE000BFFFF736FA001B022802D90320D5
:10150000BDE8F88328688001F4D4E86804490840FD
:10151000E8600020F4E70120F2E700008C809D01E4
:10152000FCFFEEFE10B5401EB0F1807F01D301201C
:1015300010BD4FF0E02460610F21601701F0B1FC95
:101540000020A06107202061002010BD7047704777
:1015500070470000F0B590F83C20012A29D0012402
:1015600080F83C40022280F83D2003685A689D685C
:10157000114EB34203D122F470074A683A4322F075
:1015800070070A683A435A600268B24205D0B2F165
:10159000804F02D0094B9A4204D1896825F080031C
:1015A0001943916080F83D40002180F83C100846C6
:1015B000F0BD0220F0BD0000002C014000400140C1
:1015C00010B5040003D094F83D0010B107E00120ED
:1015D00010BD002084F83C00204600F023F80220D3
:1015E00084F83D00211D206801F046F8012084F8B0
:1015F000480084F83E0084F83F0084F8400084F8F6
:10160000410084F8420084F8430084F8440084F8E0
:10161000450084F8460084F8470084F83D00002027
:1016200010BD000010B586B0044614216846FEF7D0
:101630004FFF1C4A21681C48914227D1016E41F49A
:1016400000610166016E01F400610591C16C41F019
:101650000101C164C06C694600F00100059090155D
:10166000009002200190002002900390012004903D
:101670004FF09040FFF76AF8002211461B20FFF759
:10168000D5F91B20FFF7C4F906B010BDB1F1804FAA
:10169000FAD1816D41F001018165806D00F001009A
:1016A0000590F1E7002C01400010024090F83D1039
:1016B000012901D001207047022180F83D10006807
:1016C0000B49884205D0B0F1804F02D009498842C9
:1016D00007D18168084A1140062906D0B1F5803F3C
:1016E00003D0016841F00101016000207047000053
:1016F000002C0140004001400700010070B5044685
:1017000090F83C000025012817D0012684F83C60A1
:10171000022084F83D00226890682F4B184020F486
:101720007F4090600868502838D00DDC20284FD0CA
:1017300005DC90B3102811D14AE0022070BD30289A
:1017400046D040280AD13BE060282FD070280DD029
:10175000B0F5805F03D0B0F5005F12D0012584F8AA
:101760003D60002084F83C00284670BDCB68D1E97C
:101770000121206800F0C3FF2068816841F07701F3
:1017800009E0CB68D1E90121206800F0B8FF2068AA
:10179000816841F480418160E1E719E0CA684968E5
:1017A000206801F0FDF85021206806E0CA68496809
:1017B000206801F02FF96021206800F0AAFFCEE731
:1017C000CA684968206801F0EBF840212068F4E716
:1017D000226801461046F0E788FFFEFF70472DE9BA
:1017E000F041054690F83C0000260C46012810D038
:1017F000012085F83C0072B1042A1CD0082A2CD0A4
:101800000C2A50D00126002085F83C003046BDE867
:10181000F0810220FBE7D4E90012E368286801F0B8
:10182000D1F82868816921F00C01816128688169FB
:10183000A26811430FE0D4E90012E368286801F0C0
:10184000FBF82868816921F4406181612868816919
:10185000A26841EA02218161D5E72868D4E9002C19
:10186000277B016A21F480710162C169036A21F05A
:10187000030141EA0C0121F0F00C39074FF4206715
:101880004CEA116123F4206307EA02221A43C16182
:1018900002622868C16921F00C01C1612868C16930
:1018A000A268114328E02868D4E90027E168036AA8
:1018B00023F480530362D0F81CC0036A2CF4407CEC
:1018C0004CEA07274FF6FF7C27F470470CEA0131FA
:1018D00039434FF4204723F4204307EA02321A43E6
:1018E000C16102622868C16921F44061C161286850
:1018F000C169A26841EA0221C16184E710B5040010
:1019000003D094F83D0010B107E0012010BD002085
:1019100084F83C00204600F022F8022084F83D00C4
:10192000211D206800F0A8FE012084F8480084F8FA
:101930003E0084F83F0084F8400084F8410084F8B9
:10194000420084F8430084F8440084F8450084F899
:10195000460084F8470084F83D00002010BD704721
:1019600070B50446006801694FF00005C943890756
:1019700015D4C168C943890711D4E91E016101204A
:101980002077206880698007204602D0FFF726FF75
:1019900004E000F0CDF8204600F08FF925772068AC
:1019A0000169C943490717D4C168C943490713D41A
:1019B0006FF004010161022020772068806910F433
:1019C000407F204602D0FFF709FF04E000F0B0F8A6
:1019D000204600F072F9257720680169C94309079C
:1019E00016D4C168C943090712D46FF00801016118
:1019F000042020772068C0698007204602D0FFF7C6
:101A0000EDFE04E000F094F8204600F056F925774A
:101A100020680169C943C90617D4C168C943C9060A
:101A200013D46FF010010161082020772068C0698D
:101A300010F4407F204602D0FFF7D0FE04E000F013
:101A400077F8204600F039F9257720680169C94305
:101A5000C90708D1C168C943C90704D1891E0161FA
:101A6000204600F093F920680169C943090609D4AA
:101A7000C168C943090605D46FF0800101612046A1
:101A8000FFF765FD20680169C943C90509D4C1682C
:101A9000C943090605D46FF4807101612046FFF740
:101AA00055FD20680169C943490609D4C168C94385
:101AB000490605D46FF040010161204600F067F946
:101AC00020680169C94389060BD4C168C9438906E6
:101AD00007D46FF0200101612046BDE87040FFF798
:101AE00037BD70BD10B586B0044614216846FEF7B8
:101AF000EFFC2068B0F1804F15D10C48C16C41F06B
:101B00000101C164C06C022100F0010005900120B8
:101B1000CDE9000100210291CDE9031069464FF0A3
:101B20009040FEF713FE06B010BD0000001002400A
:101B3000704770B5044690F83C0000260D46012819
:101B40000BD0012084F83C000C2A4AD007DC82B17B
:101B5000042A20D0082A06D131E0022070BD102AC4
:101B600053D0142A63D00126002084F83C0030466C
:101B700070BD206800F0D6FD2068816941F0080141
:101B800081612068816921F0040181612068816997
:101B90002A69114311E0206800F000FE2068816985
:101BA00041F4006181612068816921F48061816173
:101BB000206881692A6941EA02218161D4E72068AD
:101BC00000F028FE2068C16941F00801C161206869
:101BD000C16921F00401C1612068C1692A6911430A
:101BE00011E0206800F050FE2068C16941F40061F6
:101BF000C1612068C16921F48061C1612068C16947
:101C00002A6941EA0221C161AEE7206800F06CFE5A
:101C10002068416D41F0080141652068416D21F067
:101C2000040141652068416D2A69114311E0206873
:101C300000F088FE2068416D41F400614165206834
:101C4000416D21F4806141652068416D2A6941EA56
:101C50000221416588E710B5040003D094F83D00E7
:101C600010B107E0012010BD002084F83C002046A0
:101C700000F022F8022084F83D00211D206800F0C9
:101C8000FBFC012084F8480084F83E0084F83F0003
:101C900084F8400084F8410084F8420084F843004E
:101CA00084F8440084F8450084F8460084F847002E
:101CB00084F83D00002010BD7047704710B5044601
:101CC000022269B1042912D0082917D00C291CD08E
:101CD000102921D094F84300012824D0012010BD00
:101CE00094F83E000128F9D184F83E201DE094F8D4
:101CF0003F000128F2D184F83F2016E094F840001C
:101D00000128EBD184F840200FE094F8410001282D
:101D1000E4D184F8412008E094F842000128DDD1A4
:101D200084F8422001E084F843200122206800F07A
:101D3000D9FC12492068124A884204D0904202D04D
:101D4000104B984203D1436C43F400434364206832
:101D5000884204D0B0F1804F01D0904207D1816811
:101D6000094A1140062906D0B1F5803F03D0016829
:101D700041F001010160002010BD0000002C014075
:101D800000400140004401400700010070477047D7
:101D900070477047704700002DE9F0410268044623
:101DA000D0691168936840F60F0528424FF000058E
:101DB00005D186067ED58E067CD5616E1BE1994FD6
:101DC00003F001060F40374374D0C70709D0CF0591
:101DD00007D501271762D4F8802042F00102C4F829
:101DE000802082070AD5DA0708D0276802223A62E3
:101DF000D4F8802042F00402C4F8802042070AD5BB
:101E0000DA0708D0236804221A62D4F8802042F04E
:101E10000202C4F8802002070CD501F020023243F0
:101E200008D0236808221A62D4F8802042F0080201
:101E3000C4F8802002050BD54A0109D523684FF468
:101E400000621A62D4F8802042F02002C4F8802098
:101E5000D4F88020002A35D0800605D5880603D521
:101E6000616E09B120468847D4F8800021688968EE
:101E7000490602D410F0280F26D0204600F093FE29
:101E80002068806840061AD52068083050E8001F96
:101E900021F0400140E80012002AF5D1206F70B116
:101EA00061498163206FFEF717FC00280AD0206F7C
:101EB000816B01E00EE02046BDE8F0410847204676
:101EC000FFF768FFBDE8F0812046FFF763FFC4F825
:101ED0008050F7E7276E2026012F7BD1C70679D5E2
:101EE000CF0677D51020106220688068400641D563
:101EF000216F086840680004000CE3D0B4F8582053
:101F00008242DFD9A4F85A000868006880062AD403
:101F1000206850E8001F21F4807140E80012002A78
:101F2000F6D12068083050E8001F21F0010140E898
:101F30000012002AF5D12068083050E8001F21F077
:101F4000400140E80012002AF5D1E66725662168C5
:101F500051E8000F20F0100041E80002002AF6D1FD
:101F6000206FFEF794FBB4F85800B4F85A10401AEA
:101F700081B22AE0B4F85800B4F85A10401A81B27D
:101F8000B4F85A0000289DD000299BD0226852E85E
:101F9000000F20F4907042E80003002BF6D1206877
:101FA000083050E8002F22F0010240E80023002B07
:101FB000F5D1E66725666566226852E8000F20F0D5
:101FC000100042E80003002BF6D12046FFF7E0FEA8
:101FD00078E7FFE7C70209D55B0207D54FF4801009
:101FE00010622046BDE8F041FFF7D3BE020606D5D9
:101FF0000A0604D5A16E00297FF45DAF62E74006B2
:10200000E6D54806E4D52046026852E8001F21F0D4
:10201000400142E80013002BF6D18667856600F088
:1020200058F94FE720010004932B000810B5040075
:1020300002D0A06F10B107E0012010BD002084F88D
:102040007400204600F026F82420A067206801686C
:1020500021F001010160204600F0CAFD0128ECD00A
:10206000606A10B1204600F002FD2068416821F44A
:10207000904141602068816821F02A0181602068D8
:10208000016841F0010101602046BDE8104000F008
:1020900052BD000030B59BB00446142115A8FEF7D0
:1020A00017FA54216846FEF713FA1A492068884245
:1020B0002ED102240025684609950094FEF724FDE0
:1020C00008B1FEF7E2FA1448816D41F400318165F0
:1020D000816D01F400311A91C16C41F00101C164BC
:1020E000C06C15A900F001001A900C2081E83100A5
:1020F00003201890072019904FF09040FEF726FB20
:10210000002211462620FEF791FC2620FEF780FCD7
:102110001BB030BD00440040001002402DE9F84FD4
:102120000446C06F9A4616460D46202870D10DB35E
:1021300006B394F8740001286AD0012084F8740072
:102140004FF00008C4F880802221E167C4F8608065
:102150005834FEF707FC24F8026B814624F85269D4
:102160004FF4805354F80809FF21984208D122699E
:102170001AB11CE0012000F04DB840F2FF1116E04A
:102180007F2290B1B0F1805F14D0A4F85C8000BFD2
:10219000B4F85C70984201D1206990B12E460025B8
:1021A00084F8748007F0FF0825E0266936B9A4F8A2
:1021B0005C10EDE7216909B13F21F8E7A4F85C2044
:1021C000E6E70026ECE74B46002220212046CDF82A
:1021D00000A000F0FBFD08B10320CCE72068808C54
:1021E0008EB100EA080006F8010B00BFB4F85A00EF
:1021F000401EA4F85A00B4F85A000028E3D1202069
:10220000E0670020B7E7384025F8020BEEE7FFE76C
:102210000220B0E718BCBDE8E08F00002DE9F843CC
:102220000446806F1F4616460D4620284FD1CDB17B
:10223000C6B194F87400012849D0012084F87400D4
:102240004FF00008C4F880802120A067FEF78AFBC9
:10225000A4F850608146A4F85260A068B0F5805F91
:1022600003D004E00120BDE8F883206928B12E46A0
:102270005FF0000584F8748010E00026FAE7802102
:10228000204600F0A3FDB8B9C6B116F8010B2168CD
:102290000885B4F85200401EA4F85200B4F8520069
:1022A0004B464FF0000200970028E8D14FF0400164
:1022B000204600F08BFD30B10320D4E735F8020B47
:1022C000C0F30800E3E72020A0670020CBE702204E
:1022D000C9E77047FEE7000010B58CB000240A94EF
:1022E0002348079408940994059406940494009450
:1022F000019402941D490394016040F69F71C0E966
:1023000001144FF6FF71C0E9031444618461FFF7C3
:1023100057F908B172B6FEE74FF48050079007A94D
:102320001348FFF7EBF908B172B6FEE71048FFF764
:10233000E5FA08B172B6FEE70494059404A90C48C6
:102340000694FFF707F908B172B6FEE70120CDE960
:10235000004002940022694605480394FFF73FFAC3
:10236000002801D072B6FEE70CB010BD002C014071
:102370002800002010B58EB000240794089409941A
:102380000A940B940C941C2168460D94FEF7A0F857
:102390001D484FF0804101600F21C0E9011442F255
:1023A0000F71C0E903148461FFF70AF908B172B62E
:1023B000FEE74FF48050079007A91348FFF79EF9F6
:1023C00008B172B6FEE71048FFF745FC08B172B6D7
:1023D000FEE70B940BA90C480D94FFF7BBF808B16E
:1023E00072B6FEE76020CDE900040294002269463F
:1023F00005480494FFF79DFB08B172B6FEE702485A
:10240000FFF770FB0EB010BD740000200C4810B533
:102410000A4901604FF416514160002181600C228D
:10242000C160C0E904128161C16101624162FFF7CC
:10243000FDFD002801D072B6FEE710BD004400404B
:10244000C0000020FEE7FEE7704700002DE9F041E4
:10245000444C05468846E0680026810728680DD070
:10246000E16801F00301814216D1A8B1E068696812
:10247000C0F30210401C88420ED120E0012804D095
:10248000022805D0032807D108E02168890701E068
:1024900021684905002907DB01265FE021688903DF
:1024A00002D421684903F5E7E1686A686FF00F0319
:1024B00021F0730103EB021211430143E160206834
:1024C00020F080602060FEF74DFA074605E000BF6F
:1024D000FEF748FAC01B022837D820680001F7D45D
:1024E000B8F1000F18D0B8F1010F1DD0287D4FF0C2
:1024F0007E41400801EB4060A96840EA0120216963
:10250000194A114008432061206840F08060206033
:10251000FEF728FA07461AE0A868297B000240EA7D
:10252000C1602169114AECE7288A1149400801EB92
:102530004050A96840EA012021690E4AE1E700BF46
:10254000FEF710FAC01B022801D9032606E0206816
:102550000001F5D52069A969084320613046BDE82E
:10256000F081000000100240FF80FFF9FF80FF07AC
:102570000000E0FFFF809FFFF8B51C4D06460024D9
:10258000A86DC00002D5FEF7B7FA0DE0A86D40F0C7
:102590008050A865A86D00F080500090FEF7ACFA5E
:1025A000A96D21F08051A965B0F5007F04D0802E7F
:1025B00007D94FF003040AE0802E08D9A02E01D8D5
:1025C00004E001D1022402E0702E00D10124084869
:1025D000016821F0070121430160006800F0070055
:1025E000A04201D00120F8BD0020F8BD001002403B
:1025F000002002407047FEF7BBB910B596B04421E9
:102600006846FDF765FF142111A8FDF761FF4FF43F
:102610000070FEF73DFA08B172B6FEE71020009098
:1026200000240120CDE90604602008900A94684641
:10263000FEF7C8FC08B172B6FEE70F20CDE9110421
:1026400013941494002111A81594FEF7A3FB0028FD
:1026500001D072B6FEE716B010BD00000248016856
:1026600041F470010160704788ED00E00148FFF718
:1026700077B900002800002070B50268164B4FF0B3
:102680008046984201D0B04203D122F070044A68DB
:102690002243124C124D984205D0B04203D0A042C2
:1026A00001D0A84203D122F44076CA6832434E6971
:1026B00022F08002324302608A68C2620A68826243
:1026C000984203D0A04201D0A84201D10969016318
:1026D0000121416170BD0000002C0140004001401B
:1026E0000044014010B501F01F030121046A994024
:1026F0008C430462016A9A401143016210BD10B517
:10270000846842EA032224F47F440A43224382601D
:1027100010BD826822F070020A4342F00701816016
:1027200070470000F0B5026A22F001020262056AF9
:1027300043688269154C25F0020522400C6822F09E
:10274000030214438A68134E2A43114D124FA842C4
:1027500003D0B04201D0B84206D122F0080CCA68BA
:1027600042EA0C0222F00402A84203D0B04201D097
:10277000B84205D14D6923F440731D438B692B4347
:1027800043608461496841630262F0BD8FFFFEFFD0
:10279000002C0140004001400044014030B5026A75
:1027A00022F010020262046A42688369154D2B40D0
:1027B0000D6823F4407343EA052524F020038C6858
:1027C00043EA0413104CA04207D1CC6823F08003E5
:1027D00043EA041323F0400305E00C4CA04202D06E
:1027E0000B4CA04207D14C6922F4406242EA8402B9
:1027F0008C6942EA840242608561496881630362B0
:1028000030BD0000FF8FFFFE002C01400040014062
:102810000044014030B5026A22F480720262046A08
:102820004268C369144D2B400D6823F003031D4318
:1028300024F400738C6843EA0423104CA04207D1AF
:10284000CC6823F4006343EA042323F4806305E0A7
:102850000B4CA04202D00B4CA04207D14C6922F491
:10286000405242EA04128C6942EA04124260C56195
:102870004968C163036230BD8FFFFEFF002C014039
:10288000004001400044014030B5026A22F4805209
:102890000262046A4268C3690F4D24F400542B405D
:1028A0000D6823F4407343EA05238D6844EA053438
:1028B0000A4DA84205D00A4DA84202D0094DA842AF
:1028C00004D14D6922F4804242EA85124260C3611C
:1028D00049680164046230BDFF8FFFFE002C014097
:1028E000004001400044014030B5026A22F48032C9
:1028F0000262046A4268436D0E4D2B400D681D4311
:1029000024F400330C8943EA04430B4CA04205D065
:102910000A4CA04202D00A4CA04204D14C6922F4D5
:10292000803242EA0422426045654968816503625B
:1029300030BD00008FFFFEFF002C01400040014031
:102940000044014030B5026A22F480120262046A37
:102950004268436D0E4D24F400142B400D6843EA89
:1029600005230D8944EA05540A4DA84205D00A4DB5
:10297000A84202D0094DA84204D14D6922F4802218
:1029800042EA8522426043654968C165046230BD00
:10299000FF8FFFFE002C0140004001400044014039
:1029A00010B5036A046A24F001040462846924F007
:1029B000F00444EA021423F00A020A43846102622A
:1029C00010BD000070B5046A24F00104046284693B
:1029D000056A0E4EB04205D0B0F1804F02D00C4EC9
:1029E000B04203D124F00304144301E044F0010495
:1029F0001A0724F0F00444EA126225F00A0301F0F9
:102A00000A0119438261016270BD0000002C01407F
:102A10000040014010B5036A23F01003036283698C
:102A2000046A23F4704343EA023224F0A00343EA29
:102A300001118261016210BD30B5046A24F01004F6
:102A400004628469056A24F4407444EA022222F490
:102A500070444FF6FF7202EA03322243A02425F0AD
:102A6000A00304EA011119438261016230BD90F8AC
:102A70002410C90706D001684A68836A22F400322C
:102A80001A434A6090F82410890706D501684A68FD
:102A9000C36A22F480321A434A6090F8241049072E
:102AA00006D501684A68036B22F480221A434A6003
:102AB00090F82410090706D501684A68436B22F490
:102AC00000421A434A6090F82410C90606D50168EE
:102AD0008A68836B22F480521A438A6090F824102B
:102AE000890606D501688A68C36B22F400521A432E
:102AF0008A6090F82410490611D501684A68036C71
:102B000022F480121A434A60016CB1F5801F06D18D
:102B100001684A68436C22F4C0021A434A6090F884
:102B20002410090606D501684A68806C22F4002248
:102B300002434A607047F8B500260446C0F880603A
:102B4000FDF710FF0546206800686FF07E4700071C
:102B500008D52B4600224FF400112046009700F0C4
:102B600035F960B92068006840070AD52B46002275
:102B70004FF480012046009700F028F908B10320A7
:102B8000F8BD2020A067E067266684F87460002006
:102B9000F8BD10B5806A0021A0F85A10A0F85210B4
:102BA000FFF7F8F810BD016851E8002F22F4907289
:102BB00041E80023002BF6D10168083151E8002FCD
:102BC00022F0010241E80023002BF5D1016E01291A
:102BD00008D1026852E8001F21F0100142E80013FA
:102BE000002BF6D12021C1670021016641667047A4
:102BF0002DE9F0410446016880682269E6691043C6
:102C00006269002532431043694B0A68694E3240BD
:102C100002430A6020684168E26821F44051114390
:102C200041602168A069994201D0226A10438A68F4
:102C300022F4306202438A605F4927685F488F420E
:102C40000DD1D0F8880010F0030006D0012838D04C
:102C5000022834D0032821D135E001211FE0584952
:102C60008F420BD1D0F8880010F00C0025D004283A
:102C700027D0082823D00C2810D124E09F420DD162
:102C8000D0F8880010F4406017D0B0F5806F18D0ED
:102C9000B0F5006F13D0B0F5406F14D01021494A41
:102CA00000264FF400409F422FD171B102290FD06E
:102CB00004290FD0082973D10FE00021EFE702218A
:102CC000EDE70421EBE70821E9E7FEF705F903E06A
:102CD000104602E0FEF724F9F0B3626802EB42010D
:102CE00081425DD8B0EB023F5AD8010E0302500872
:102CF000181871410023FDF7BDFA334AA0F5407161
:102D000091424DD82168C8604BE0E3694FF6EF77F8
:102D1000834228D1092943D2DFE801F005080B429C
:102D20000D4242421000FEF7D7F806E0FEF7E6F843
:102D300003E0104602E0FEF7F3F868B14100606876
:102D400001EB5001B1FBF0F0A0F11001B94227D81E
:102D50004FF6F071014000E023E0C0F34200014370
:102D60002068C1601DE009291AD2DFE801F00508DA
:102D70000B190D1919191000FEF7AEF806E0FEF751
:102D8000BDF803E0104602E0FEF7CAF848B16168FA
:102D900000EB5100B0FBF1F0A0F11001B94205D9F0
:102DA000012566662846A666BDE8F08180B2A9E7DF
:102DB00000800040F369FFEF00380140001002403E
:102DC000004400400024F400FFFC0F002DE9F04710
:102DD0009A4617460E4604464FF000094FF0200869
:102DE000089D4AE0681C48D0FDF7BCFDA0EB0A0036
:102DF000A8422AD84DB32068016849073DD5C0696B
:102E0000C043000539D421684FF40060086220688F
:102E100050E8001F21F4D07140E80012002AF6D1DA
:102E20002068083050E8001F21F0010140E800123E
:102E3000002AF5D1C4F87880C4F87C80C4F880807A
:102E400084F874900320BDE8F087216851E8000FF2
:102E500020F4D07041E80002002AF6D12068083042
:102E600050E8001F21F0010140E80012002AF5D1CE
:102E7000C4F87880C4F87C80E2E72068C06936EA4C
:102E8000000004D00020B842ACD00020DBE70120D5
:102E9000F9E700000148FEF77FBF0000C0000020F6
:102EA000FEE70907090E002804DB00F1E02080F8A6
:102EB0000014704700F00F0000F1E02080F8141DAE
:102EC000704700009AB0FDF75BFDFFF796FB1421F9
:102ED0006846FDF7FDFAC848C16C41F00101C164C4
:102EE000C06C4FF0904800F001004FF40074059062
:102EF0000022214646464046FDF72EFD4FF0010ACE
:102F000000250094CDE901A5694630460395FDF7FB
:102F10001DFC4FF48069CDE9009569463046029565
:102F2000FDF714FCFFF772FAFFF7D6F9FFF722FA64
:102F3000B248FEF7BBFBB14800214C30FEF7BEFEA5
:102F4000DFF8BCB25C46DBF8040018B1A0680028CA
:102F500037D05CE0ABA1B448FDF704FAB249642372
:102F60001A46A1F18400FFF759F9A54F0026103742
:102F7000721CAEA1AC48FDF7F5F9AB4964231A46C3
:102F8000A1F18400FFF74AF99D49A74842F2107366
:102F90000122C91C8438FFF7C1F8E0783038B855F1
:102FA000761C042EE4DBACA19F48FDF7DBF99E49BB
:102FB00064231A46A1F18400FFF730F9C4F804A095
:102FC000C0E79948AE496430FDF7CCF996496423CF
:102FD0006431FA22A1F1E800FFF720F9874EA570CD
:102FE0003068456242F210770BE049464046FDF7F3
:102FF000AEFC012805D1A078401CA0704B20FDF745
:1030000093FB3068406AB842EFD3C4F808A0A078B8
:1030100090B162789BA1A648521CFDF7A3F9A44980
:1030200064231A46A1F5F170FFF7F8F8734E306883
:10303000456241F2883723E09EA16846FDF792F988
:10304000794864231A4669468438FFF7E7F86B48E5
:10305000006845624E46474631463846FDF777FCE4
:103060000128F9D1A5606DE749464046FDF76FFCA0
:10307000012805D12078401C20704B20FDF754FB1F
:103080003068406AB842EFD35D4F607814372278D9
:103090003A5491A16448FDF765F963496423162207
:1030A000A1F18400FFF7BAF825706078401CC0B227
:1030B0006070042884D165703E1F39783078A3464B
:1030C000884270D17078797888426CD1B078B978BC
:1030D000884268D1F078F978884264D164228449C2
:1030E0006846FDF7C3F9504864231A466946843898
:1030F000FFF794F801225702394644464046FDF74F
:103100002BFC4FF47A70FDF70FFB00223946204666
:10311000FDF722FC9BF80200022804D05F4601283C
:1031200018D074A133E0354E00244C363068446327
:1031300040F2E24707E030684463AF2C03D140F629
:10314000B830FDF7F1FA0A20FDF7EEFA641CBC4234
:10315000F1DB4CE00024621C34A13348FDF702F996
:10316000314964231A46A1F18400FFF757F8244936
:103170002D4842F210730122C91C8438FEF7CEFF9D
:10318000F87830383055641C042CE4DB5EA1264806
:10319000FDF7E8F8244964231A46A1F18400FFF7FB
:1031A0003DF824E0FFE75249642264316846FDF7A8
:1031B0005DF91D4864231A4669468438FFF72EF8E6
:1031C00000244FF400764746012231463846FDF789
:1031D000C3FBFA20FDF7A8FA002231463846FDF776
:1031E000BBFB6420FDF7A0FA641C062CECDB8BF81B
:1031F0000250CBF80850A5E600100240280000203D
:1032000000000020506C6561736520656E74657206
:1032100020746865206E65772070617373776F72B4
:1032200064200D0A0000000044010020506C65611C
:10323000736520696E7075742064696769742025F0
:103240006420666F72206E65772070617373776F8C
:1032500072640D0A000000004E65772050617373A0
:10326000776F726420656E74657264207375636332
:1032700065737366756C6C79212020200A0000004C
:103280004C340008506C6561736520696E7075740C
:103290002063757272656E742070617373776F72DC
:1032A000642064696769742025640D0A00000000C9
:1032B000A2020020496E70757420616E797468698D
:1032C0006E6720746F2072657374617274207379F5
:1032D0007374656D0A000000496E707574746564DE
:1032E000206E756D626572203D2025640D0A000018
:1032F0003C330008496E76616C696420696E7075B4
:103300007421200D0A0000004E6577205061737310
:10331000776F726420656E74657264207375636381
:1033200065737366756C6C7921200D0A00000000CE
:103330004FF04070E1EE100A704700005061737367
:10334000776F72642056657269666965640D0A005C
:10335000000000000000000000000000000000006D
:10336000000000000000000000000000000000005D
:10337000000000000000000000000000000000004D
:10338000000000000000000000000000000000003D
:10339000000000000000000000000000000000002D
:1033A00050617373776F726420496E636F727265D8
:1033B00063740D0A0000000000000000000000001F
:1033C00000000000000000000000000000000000FD
:1033D00000000000000000000000000000000000ED
:1033E00000000000000000000000000000000000DD
:1033F00000000000000000000000000000000000CD
:1034000000000000000000000000000001020304B2
:1034100006070809A0860100400D0300801A060077
:1034200000350C0040420F0080841E0000093D0062
:1034300000127A000024F40000366E010048E80112
:10344000006CDC020000000001020304446F2079DC
:103450006F752077616E7420746F2075706461746D
:1034600065206F7220656E7465722070617373776A
:103470006F72643F0A436C6170206F6E63652D2D1F
:103480003E5570646174652070617373776F726408
:103490000A436C61702074776963652D2D3E456E1B
:1034A0007465722070617373776F72640A00000034
:1034B000D03400080000002028000000C8010008E7
:1034C000F83400082800002040090000E40100084A
:1034D00000000000000000000000000000000000EC
:1034E00001020304000000000100000010000000C1
:0834F0000000000000093D008E
:040000050800018D61
:00000001FF
